110104   20251223000111788000000000036142190000000010                                                                                                                                                                                                                                   
110104   20251223000122788010000000004971900400100740470041164903033163010100062718ATTIJARI BANK 411             MAT9625548          REMBOURSEMENT SOINS                                                                                                                                
110104   20251223000122788020000000003661760400100740470041164925128000000089429216ATTIJARI BANK 411             MAT13014018         REMBOURSEMENT SOINS                                                                                                                                
110104   20251223000122788030000000002813170400100740470041164921023023404000429574ATTIJARI BANK 411             MAT9631967          REMBOURSEMENT SOINS                                                                                                                                
110104   20251223000122788040000000000894240400100740470041164901072104111015376650ATTIJARI BANK 411             MAT14263785         REMBOURSEMENT SOINS                                                                                                                                
110104   20251223000122788050000000004402830400100740470041164904096181006267722463ATTIJARI BANK 411             MAT7152737          REMBOURSEMENT SOINS                                                                                                                                
110104   20251223000122788060000000004010260400100740470041164914808808100706227101ATTIJARI BANK 411             MAT6303834          REMBOURSEMENT SOINS                                                                                                                                
110104   20251223000122788070000000005126140400100740470041164924006006648251110105ATTIJARI BANK 411             MAT5361028          REMBOURSEMENT SOINS                                                                                                                                
110104   20251223000122788080000000003179930400100740470041164908064021082000315774ATTIJARI BANK 411             MAT7058724          REMBOURSEMENT SOINS                                                                                                                                
110104   20251223000122788090000000003564150400100740470041164908709000482002064819ATTIJARI BANK 411             MAT5307185          REMBOURSEMENT SOINS                                                                                                                                
110104   20251223000122788100000000003517810400100740470041164914021021100703870658ATTIJARI BANK 411             MAT14261148         REMBOURSEMENT SOINS                                                                                                                                