110104   20251223000111788000000000032246250000000010                                                                                                                                                                                                                                   
110104   202512230001217880000000000000040444400000004001007404700411649ATTIJARI BANK 411             03   03033163010100062718PGH   FILIALES                00000000000000001000000VIR20251223PGH  FILIALES                      2025122300000000010                                      
110104   202512230001217880000000000000018385600000004001007404700411649ATTIJARI BANK 411             25   25128000000089429216PGH   FILIALES                00000000000000001000000VIR20251223PGH  FILIALES                      2025122300000000010                                      
110104   202512230001217880000000000000007322600000004001007404700411649ATTIJARI BANK 411             21   21023023404000429574PGH   FILIALES                00000000000000001000000VIR20251223PGH  FILIALES                      2025122300000000010                                      
110104   202512230001217880000000000000050074800000004001007404700411649ATTIJARI BANK 411             01   01072104111015376650PGH   FILIALES                00000000000000001000000VIR20251223PGH  FILIALES                      2025122300000000010                                      
110104   202512230001217880000000000000008247600000004001007404700411649ATTIJARI BANK 411             04   04096181006267722463PGH   FILIALES                00000000000000001000000VIR20251223PGH  FILIALES                      2025122300000000010                                      
110104   202512230001217880000000000000034190400000004001007404700411649ATTIJARI BANK 411             14   14808808100706227101PGH   FILIALES                00000000000000001000000VIR20251223PGH  FILIALES                      2025122300000000010                                      
110104   202512230001217880000000000000051439900000004001007404700411649ATTIJARI BANK 411             24   24006006648251110105PGH   FILIALES                00000000000000001000000VIR20251223PGH  FILIALES                      2025122300000000010                                      
110104   202512230001217880000000000000038656800000004001007404700411649ATTIJARI BANK 411             08   08064021082000315774PGH   FILIALES                00000000000000001000000VIR20251223PGH  FILIALES                      2025122300000000010                                      
110104   202512230001217880000000000000023348200000004001007404700411649ATTIJARI BANK 411             08   08709000482002064819PGH   FILIALES                00000000000000001000000VIR20251223PGH  FILIALES                      2025122300000000010                                      
110104   202512230001217880000000000000050352200000004001007404700411649ATTIJARI BANK 411             14   14021021100703870658PGH   FILIALES                00000000000000001001000VIR20251223PGH  FILIALES                      2025122300000000010                                      