110104   20251223000111788000000000023125130000000010                                                                                                                                                                                                                                   
110104   20251223000122788010000000000350160400100740470041164903033163010100062718PGH  FILIALES                 MAT9625548          REMBOURSEMENT SOINS                                                                                                                                
110104   20251223000122788020000000002506250400100740470041164925128000000089429216PGH  FILIALES                 MAT13014018         REMBOURSEMENT SOINS                                                                                                                                
110104   20251223000122788030000000000827270400100740470041164921023023404000429574PGH  FILIALES                 MAT9631967          REMBOURSEMENT SOINS                                                                                                                                
110104   20251223000122788040000000003251870400100740470041164901072104111015376650PGH  FILIALES                 MAT14263785         REMBOURSEMENT SOINS                                                                                                                                
110104   20251223000122788050000000003442570400100740470041164904096181006267722463PGH  FILIALES                 MAT7152737          REMBOURSEMENT SOINS                                                                                                                                
110104   20251223000122788060000000003542700400100740470041164914808808100706227101PGH  FILIALES                 MAT6303834          REMBOURSEMENT SOINS                                                                                                                                
110104   20251223000122788070000000001485900400100740470041164924006006648251110105PGH  FILIALES                 MAT5361028          REMBOURSEMENT SOINS                                                                                                                                
110104   20251223000122788080000000003460900400100740470041164908064021082000315774PGH  FILIALES                 MAT7058724          REMBOURSEMENT SOINS                                                                                                                                
110104   20251223000122788090000000003207970400100740470041164908709000482002064819PGH  FILIALES                 MAT5307185          REMBOURSEMENT SOINS                                                                                                                                
110104   20251223000122788100000000001049540400100740470041164914021021100703870658PGH  FILIALES                 MAT14261148         REMBOURSEMENT SOINS                                                                                                                                