110120   20251223000111788000000000034186170000000020                                                                                                                                                                                                                                   
110120   20251223000122788010000000001020362000303221005975802914043043100702168352BENGAGI ZIED                  MATM001             PGH  FILIALES                                                                                                                                      
110120   20251223000122788020000000001169572000303221005975802914015015100704939295SAIDANI HICHEM                MATM002             PGH  FILIALES                                                                                                                                      
110120   20251223000122788030000000000655002000303221005975802908081023082003208516NEFZI MOHEB                   MATM003             PGH  FILIALES                                                                                                                                      
110120   20251223000122788040000000000300002000303221005975802914067067100701418590LTIFI ADEL                    MATM004             PGH  FILIALES                                                                                                                                      
110120   20251223000122788050000000004480002000303221005975802914067067100700641135RAJHI HAMZA                   MATM005             PGH  FILIALES                                                                                                                                      
110120   20251223000122788060000000001113192000303221005975802907016007810558352528ARIDHI LATIFA                 MATM006             PGH  FILIALES                                                                                                                                      
110120   20251223000122788070000000000400002000303221005975802907016007810582292128EZZIDINI KHALED               MATM007             PGH  FILIALES                                                                                                                                      
110120   20251223000122788080000000000925002000303221005975802914008008100709748250OUHIBI SAMEH                  MATM008             PGH  FILIALES                                                                                                                                      
110120   20251223000122788090000000000625002000303221005975802907016007810581731953CHALLAKH MOHAMED              MATM009             PGH  FILIALES                                                                                                                                      
110120   20251223000122788100000000000841772000303221005975802908019011022001723056MOHAMED BEN MLOUKA            MATM010             PGH  FILIALES                                                                                                                                      
110120   20251223000122788110000000014180002000303221005975802920032322220051647331RAJHI RAOUF                   MATM011             PGH  FILIALES                                                                                                                                      
110120   20251223000122788120000000000400002000303221005975802907077013510552050124AYMEN ARBOUJ                  MATM012             PGH  FILIALES                                                                                                                                      
110120   20251223000122788130000000004920002000303221005975802917001000000089830627BEN SOUFIENE                  MATM013             PGH  FILIALES                                                                                                                                      
110120   20251223000122788140000000000120002000303221005975802908047020022002526737KOUKI HABIB                   MATM014             PGH  FILIALES                                                                                                                                      
110120   20251223000122788150000000000270002000303221005975802917206000000178121860MAROUENI MOETAZ               MATM015             PGH  FILIALES                                                                                                                                      
110120   20251223000122788160000000000300002000303221005975802907018008610554386262TOUNEKTI ANIS                 MATM016             PGH  FILIALES                                                                                                                                      
110120   20251223000122788170000000000400002000303221005975802914207207100714066409OUESLATI MAJED                MATM017             PGH  FILIALES                                                                                                                                      
110120   20251223000122788180000000000576502000303221005975802917606000000210085633REBII ABDSATAR                MATM018             PGH  FILIALES                                                                                                                                      
110120   20251223000122788190000000000600002000303221005975802920024242220001496968BOUKHATMI HAFEDH              MATM019             PGH  FILIALES                                                                                                                                      
110120   20251223000122788200000000000889782000303221005975802925044000000121815088KOBTANE ANIS                  MATM020             PGH  FILIALES                                                                                                                                      