110104   20251223000111788000000000030614490000000010                                                                                                                                                                                                                                   
110104   20251223000122788010000000004334670400100740470041164903033163010100062718PGH  FILIALES                 MAT9625548          PGH  FILIALES                                                                                                                                      
110104   20251223000122788020000000004254820400100740470041164925128000000089429216PGH  FILIALES                 MAT13014018         PGH  FILIALES                                                                                                                                      
110104   20251223000122788030000000004499830400100740470041164921023023404000429574PGH  FILIALES                 MAT9631967          PGH  FILIALES                                                                                                                                      
110104   20251223000122788040000000002192960400100740470041164901072104111015376650PGH  FILIALES                 MAT14263785         PGH  FILIALES                                                                                                                                      
110104   20251223000122788050000000001493400400100740470041164904096181006267722463PGH  FILIALES                 MAT7152737          PGH  FILIALES                                                                                                                                      
110104   20251223000122788060000000004312350400100740470041164914808808100706227101PGH  FILIALES                 MAT6303834          PGH  FILIALES                                                                                                                                      
110104   20251223000122788070000000001205960400100740470041164924006006648251110105PGH  FILIALES                 MAT5361028          PGH  FILIALES                                                                                                                                      
110104   20251223000122788080000000002025260400100740470041164908064021082000315774PGH  FILIALES                 MAT7058724          PGH  FILIALES                                                                                                                                      
110104   20251223000122788090000000004030480400100740470041164908709000482002064819PGH  FILIALES                 MAT5307185          PGH  FILIALES                                                                                                                                      
110104   20251223000122788100000000002264760400100740470041164914021021100703870658PGH  FILIALES                 MAT14261148         PGH  FILIALES                                                                                                                                      