110104   20251028000111788000000000000002307212000000000010                                                                                                                                                                                                                                             
110104   20251028000100001788000000000000000453546000000004001007404700411649ARS EX  "AON TUNISIE S.A."    07   07018008610554386262TOUNEKTIANIS                  00000000000000001453546000AIRBUS BORD 18-25                            2025102800000000010                                      
110104   20251028000100002788000000000000000489553000000004001007404700411649ARS EX  "AON TUNISIE S.A."    17   17206000000178121860MAROUENIMOETAZ                00000000000000001489553000AIRBUS BORD 18-25                            2025102800000000010                                      
110104   20251028000100003788000000000000000155290000000004001007404700411649ARS EX  "AON TUNISIE S.A."    17   17606000000210085633REBIIABDSATAR                 00000000000000001155290000AIRBUS BORD 18-25                            2025102800000000010                                      
110104   20251028000100004788000000000000000195206000000004001007404700411649ARS EX  "AON TUNISIE S.A."    07   07016007810581731953CHALLAKHMOHAMED               00000000000000001195206000AIRBUS BORD 18-25                            2025102800000000010                                      
110104   20251028000100005788000000000000000165724000000004001007404700411649ARS EX  "AON TUNISIE S.A."    14   14043043100702168352BENGAGIZIED                   00000000000000001165724000AIRBUS BORD 18-25                            2025102800000000010                                      
110104   20251028000100006788000000000000000270119000000004001007404700411649ARS EX  "AON TUNISIE S.A."    14   14207207100714066409OUESLATIMAJED                 00000000000000001270119000AIRBUS BORD 18-25                            2025102800000000010                                      
110104   20251028000100007788000000000000000210778000000004001007404700411649ARS EX  "AON TUNISIE S.A."    14   14008008100709748250OUHIBISAMEH                   00000000000000001210778000AIRBUS BORD 18-25                            2025102800000000010                                      
110104   20251028000100008788000000000000000071480000000004001007404700411649ARS EX  "AON TUNISIE S.A."    25   25044000000121815088KOBTANEANIS                   00000000000000001071480000AIRBUS BORD 18-25                            2025102800000000010                                      
110104   20251028000100009788000000000000000254519000000004001007404700411649ARS EX  "AON TUNISIE S.A."    08   08081023082003208516NEFZIMOHEB                    00000000000000001254519000AIRBUS BORD 18-25                            2025102800000000010                                      
110104   20251028000100010788000000000000000040997000000004001007404700411649ARS EX  "AON TUNISIE S.A."    07   07016007810558352528ARIDHILATIFA                  00000000000000001040997000AIRBUS BORD 18-25                            2025102800000000010                                      