110120   20251215000111788000000000026946910000000010                                                                                                                                                                                                                                   
110120   20251215000122788010000000004830382000303221005975802903033163010100062718PGH  FILIALES                 MAT9625548          REMBOURSEMENT SOINS                                                                                                                                
110120   20251215000122788020000000003356362000303221005975802925128000000089429216PGH  FILIALES                 MAT13014018         REMBOURSEMENT SOINS                                                                                                                                
110120   20251215000122788030000000003594682000303221005975802921023023404000429574PGH  FILIALES                 MAT9631967          REMBOURSEMENT SOINS                                                                                                                                
110120   20251215000122788040000000002255732000303221005975802901072104111015376650PGH  FILIALES                 MAT14263785         REMBOURSEMENT SOINS                                                                                                                                
110120   20251215000122788050000000004433432000303221005975802904096181006267722463PGH  FILIALES                 MAT7152737          REMBOURSEMENT SOINS                                                                                                                                
110120   20251215000122788060000000001539362000303221005975802914808808100706227101PGH  FILIALES                 MAT6303834          REMBOURSEMENT SOINS                                                                                                                                
110120   20251215000122788070000000001724812000303221005975802924006006648251110105PGH  FILIALES                 MAT5361028          REMBOURSEMENT SOINS                                                                                                                                
110120   20251215000122788080000000001875822000303221005975802908064021082000315774PGH  FILIALES                 MAT7058724          REMBOURSEMENT SOINS                                                                                                                                
110120   20251215000122788090000000002755092000303221005975802908709000482002064819PGH  FILIALES                 MAT5307185          REMBOURSEMENT SOINS                                                                                                                                
110120   20251215000122788100000000000581252000303221005975802914021021100703870658PGH  FILIALES                 MAT14261148         REMBOURSEMENT SOINS                                                                                                                                