110104   20251223000111788000000000034186170000000020                                                                                                                                                                                                                                   
110104   202512230001217880000000000000010203600000004001007404700411649ATTIJARI BANK 411             14   14043043100702168352BENGAGI PRENOMINCONNU         00000000000000001000000VIR20251223PGH  FILIALES                      2025122300000000010                                      
110104   202512230001217880000000000000011695700000004001007404700411649ATTIJARI BANK 411             14   14015015100704939295SAIDANI PRENOMINCONNU         00000000000000001000000VIR20251223PGH  FILIALES                      2025122300000000010                                      
110104   202512230001217880000000000000006550000000004001007404700411649ATTIJARI BANK 411             08   08081023082003208516NEFZI PRENOMINCONNU           00000000000000001000000VIR20251223PGH  FILIALES                      2025122300000000010                                      
110104   202512230001217880000000000000003000000000004001007404700411649ATTIJARI BANK 411             14   14067067100701418590LTIFI PRENOMINCONNU           00000000000000001000000VIR20251223PGH  FILIALES                      2025122300000000010                                      
110104   202512230001217880000000000000044800000000004001007404700411649ATTIJARI BANK 411             14   14067067100700641135RAJHI PRENOMINCONNU           00000000000000001000000VIR20251223PGH  FILIALES                      2025122300000000010                                      
110104   202512230001217880000000000000011131900000004001007404700411649ATTIJARI BANK 411             07   07016007810558352528ARIDHI PRENOMINCONNU          00000000000000001000000VIR20251223PGH  FILIALES                      2025122300000000010                                      
110104   202512230001217880000000000000004000000000004001007404700411649ATTIJARI BANK 411             07   07016007810582292128EZZIDINI PRENOMINCONNU        00000000000000001000000VIR20251223PGH  FILIALES                      2025122300000000010                                      
110104   202512230001217880000000000000009250000000004001007404700411649ATTIJARI BANK 411             14   14008008100709748250OUHIBI PRENOMINCONNU          00000000000000001000000VIR20251223PGH  FILIALES                      2025122300000000010                                      
110104   202512230001217880000000000000006250000000004001007404700411649ATTIJARI BANK 411             07   07016007810581731953CHALLAKH PRENOMINCONNU        00000000000000001000000VIR20251223PGH  FILIALES                      2025122300000000010                                      
110104   202512230001217880000000000000008417700000004001007404700411649ATTIJARI BANK 411             08   08019011022001723056MOHAMED PRENOMINCONNU         00000000000000001001000VIR20251223PGH  FILIALES                      2025122300000000010                                      
110104   202512230001217880000000000000141800000000004001007404700411649ATTIJARI BANK 411             20   20032322220051647331RAJHI PRENOMINCONNU           00000000000000001001000VIR20251223PGH  FILIALES                      2025122300000000010                                      
110104   202512230001217880000000000000004000000000004001007404700411649ATTIJARI BANK 411             07   07077013510552050124AYMEN PRENOMINCONNU           00000000000000001001000VIR20251223PGH  FILIALES                      2025122300000000010                                      
110104   202512230001217880000000000000049200000000004001007404700411649ATTIJARI BANK 411             17   17001000000089830627BEN SLIMENE                   00000000000000001001000VIR20251223PGH  FILIALES                      2025122300000000010                                      
110104   202512230001217880000000000000006000000000004001007404700411649ATTIJARI BANK 411             20   20024242220001496968BOUKHATMI PRENOMINCONNU       00000000000000001001000VIR20251223PGH  FILIALES                      2025122300000000010                                      
110104   202512230001217880000000000000001200000000004001007404700411649ATTIJARI BANK 411             08   08047020022002526737KOUKI PRENOMINCONNU           00000000000000001001000VIR20251223PGH  FILIALES                      2025122300000000010                                      
110104   202512230001217880000000000000002700000000004001007404700411649ATTIJARI BANK 411             17   17206000000178121860MAROUENI PRENOMINCONNU        00000000000000001001000VIR20251223PGH  FILIALES                      2025122300000000010                                      
110104   202512230001217880000000000000003000000000004001007404700411649ATTIJARI BANK 411             07   07018008610554386262TOUNEKTI PRENOMINCONNU        00000000000000001001000VIR20251223PGH  FILIALES                      2025122300000000010                                      
110104   202512230001217880000000000000004000000000004001007404700411649ATTIJARI BANK 411             14   14207207100714066409OUESLATI PRENOMINCONNU        00000000000000001001000VIR20251223PGH  FILIALES                      2025122300000000010                                      
110104   202512230001217880000000000000005765000000004001007404700411649ATTIJARI BANK 411             17   17606000000210085633REBII PRENOMINCONNU           00000000000000001001000VIR20251223PGH  FILIALES                      2025122300000000010                                      
110104   202512230001217880000000000000008897800000004001007404700411649ATTIJARI BANK 411             25   25044000000121815088KOBTANE PRENOMINCONNU         00000000000000001002000VIR20251223PGH  FILIALES                      2025122300000000010                                      