110104   20251028000111788000000000000002134422000000000010                                                                                                                                                                                                                                             
110104   20251028000100001788000000000000000269773000000004001007404700411649ARS EX  "AON TUNISIE S.A."    07   07018008610554386262TOUNEKTIANIS                  00000000000000001269773000AIRBUS BORD 18-25                            2025102800000000010                                      
110104   20251028000100002788000000000000000366759000000004001007404700411649ARS EX  "AON TUNISIE S.A."    17   17206000000178121860MAROUENIMOETAZ                00000000000000001366759000AIRBUS BORD 18-25                            2025102800000000010                                      
110104   20251028000100003788000000000000000214123000000004001007404700411649ARS EX  "AON TUNISIE S.A."    17   17606000000210085633REBIIABDSATAR                 00000000000000001214123000AIRBUS BORD 18-25                            2025102800000000010                                      
110104   20251028000100004788000000000000000030722000000004001007404700411649ARS EX  "AON TUNISIE S.A."    07   07016007810581731953CHALLAKHMOHAMED               00000000000000001030722000AIRBUS BORD 18-25                            2025102800000000010                                      
110104   20251028000100005788000000000000000039018000000004001007404700411649ARS EX  "AON TUNISIE S.A."    14   14043043100702168352BENGAGIZIED                   00000000000000001039018000AIRBUS BORD 18-25                            2025102800000000010                                      
110104   20251028000100006788000000000000000093270000000004001007404700411649ARS EX  "AON TUNISIE S.A."    14   14207207100714066409OUESLATIMAJED                 00000000000000001093270000AIRBUS BORD 18-25                            2025102800000000010                                      
110104   20251028000100007788000000000000000206461000000004001007404700411649ARS EX  "AON TUNISIE S.A."    14   14008008100709748250OUHIBISAMEH                   00000000000000001206461000AIRBUS BORD 18-25                            2025102800000000010                                      
110104   20251028000100008788000000000000000285536000000004001007404700411649ARS EX  "AON TUNISIE S.A."    25   25044000000121815088KOBTANEANIS                   00000000000000001285536000AIRBUS BORD 18-25                            2025102800000000010                                      
110104   20251028000100009788000000000000000102113000000004001007404700411649ARS EX  "AON TUNISIE S.A."    08   08081023082003208516NEFZIMOHEB                    00000000000000001102113000AIRBUS BORD 18-25                            2025102800000000010                                      
110104   20251028000100010788000000000000000526647000000004001007404700411649ARS EX  "AON TUNISIE S.A."    07   07016007810558352528ARIDHILATIFA                  00000000000000001526647000AIRBUS BORD 18-25                            2025102800000000010                                      