110104   20251028000111788000000000000003418617000000000020                                                                                                                                                                                                                                             
110104   20251028000100001788000000000000000102036000000004001007404700411649ARS EX  "AON TUNISIE S.A."    14   14043043100702168352BENGAGIZIED                   00000000000000001102036000AIRBUS BORD 18-25                            2025102800000000010                                      
110104   20251028000100002788000000000000000116957000000004001007404700411649ARS EX  "AON TUNISIE S.A."    14   14015015100704939295SAIDANIHichem                 00000000000000001116957000AIRBUS BORD 18-25                            2025102800000000010                                      
110104   20251028000100003788000000000000000065500000000004001007404700411649ARS EX  "AON TUNISIE S.A."    08   08081023082003208516NEFZIMOHEB                    00000000000000001065500000AIRBUS BORD 18-25                            2025102800000000010                                      
110104   20251028000100004788000000000000000030000000000004001007404700411649ARS EX  "AON TUNISIE S.A."    14   14067067100701418590LTIFIADEL                     00000000000000001030000000AIRBUS BORD 18-25                            2025102800000000010                                      
110104   20251028000100005788000000000000000448000000000004001007404700411649ARS EX  "AON TUNISIE S.A."    14   14067067100700641135RAJHIHAMZA                    00000000000000001448000000AIRBUS BORD 18-25                            2025102800000000010                                      
110104   20251028000100006788000000000000000111319000000004001007404700411649ARS EX  "AON TUNISIE S.A."    07   07016007810558352528ARIDHILATIFA                  00000000000000001111319000AIRBUS BORD 18-25                            2025102800000000010                                      
110104   20251028000100007788000000000000000040000000000004001007404700411649ARS EX  "AON TUNISIE S.A."    07   07016007810582292128EZZIDINIKHALED                00000000000000001040000000AIRBUS BORD 18-25                            2025102800000000010                                      
110104   20251028000100008788000000000000000092500000000004001007404700411649ARS EX  "AON TUNISIE S.A."    14   14008008100709748250OUHIBISAMEH                   00000000000000001092500000AIRBUS BORD 18-25                            2025102800000000010                                      
110104   20251028000100009788000000000000000062500000000004001007404700411649ARS EX  "AON TUNISIE S.A."    07   07016007810581731953CHALLAKHMOHAMED               00000000000000001062500000AIRBUS BORD 18-25                            2025102800000000010                                      
110104   20251028000100010788000000000000000084177000000004001007404700411649ARS EX  "AON TUNISIE S.A."    08   08019011022001723056MOHAMEDBENMLOUKA              00000000000000001084177000AIRBUS BORD 18-25                            2025102800000000010                                      
110104   20251028000100011788000000000000001418000000000004001007404700411649ARS EX  "AON TUNISIE S.A."    20   20032322220051647331RAJHIRAOUF                    000000000000000011418000000AIRBUS BORD 18-25                            2025102800000000010                                      
110104   20251028000100012788000000000000000040000000000004001007404700411649ARS EX  "AON TUNISIE S.A."    07   07077013510552050124AYMENARBOUJ                   00000000000000001040000000AIRBUS BORD 18-25                            2025102800000000010                                      
110104   20251028000100013788000000000000000492000000000004001007404700411649ARS EX  "AON TUNISIE S.A."    17   17001000000089830627BENSLIMENESOUFIENE            00000000000000001492000000AIRBUS BORD 18-25                            2025102800000000010                                      
110104   20251028000100014788000000000000000012000000000004001007404700411649ARS EX  "AON TUNISIE S.A."    08   08047020022002526737KOUKIHABIB                    00000000000000001012000000AIRBUS BORD 18-25                            2025102800000000010                                      
110104   20251028000100015788000000000000000027000000000004001007404700411649ARS EX  "AON TUNISIE S.A."    17   17206000000178121860MAROUENIMOETAZ                00000000000000001027000000AIRBUS BORD 18-25                            2025102800000000010                                      
110104   20251028000100016788000000000000000030000000000004001007404700411649ARS EX  "AON TUNISIE S.A."    07   07018008610554386262TOUNEKTIANIS                  00000000000000001030000000AIRBUS BORD 18-25                            2025102800000000010                                      
110104   20251028000100017788000000000000000040000000000004001007404700411649ARS EX  "AON TUNISIE S.A."    14   14207207100714066409OUESLATIMAJED                 00000000000000001040000000AIRBUS BORD 18-25                            2025102800000000010                                      
110104   20251028000100018788000000000000000057650000000004001007404700411649ARS EX  "AON TUNISIE S.A."    17   17606000000210085633REBIIABDSATAR                 00000000000000001057650000AIRBUS BORD 18-25                            2025102800000000010                                      
110104   20251028000100019788000000000000000060000000000004001007404700411649ARS EX  "AON TUNISIE S.A."    20   20024242220001496968BOUKHATMIHAFEDH               00000000000000001060000000AIRBUS BORD 18-25                            2025102800000000010                                      
110104   20251028000100020788000000000000000088978000000004001007404700411649ARS EX  "AON TUNISIE S.A."    25   25044000000121815088KOBTANEANIS                   00000000000000001088978000AIRBUS BORD 18-25                            2025102800000000010                                      