110104   20251223000111788000000000034186170000000020                                                                                                                                                                                                                                   
110104   202512230001217880000000000000010203600000004001007404700411649ATTIJARI BANK 411             14   14043043100702168352BENGAGI ZIED                  00000000000000001000000VIR20251223PGH  FILIALES                      2025122300000000010                                      
110104   202512230001217880000000000000011695700000004001007404700411649ATTIJARI BANK 411             14   14015015100704939295SAIDANI HICHEM                00000000000000001000000VIR20251223PGH  FILIALES                      2025122300000000010                                      
110104   202512230001217880000000000000006550000000004001007404700411649ATTIJARI BANK 411             08   08081023082003208516NEFZI MOHEB                   00000000000000001000000VIR20251223PGH  FILIALES                      2025122300000000010                                      
110104   202512230001217880000000000000003000000000004001007404700411649ATTIJARI BANK 411             14   14067067100701418590LTIFI ADEL                    00000000000000001000000VIR20251223PGH  FILIALES                      2025122300000000010                                      
110104   202512230001217880000000000000044800000000004001007404700411649ATTIJARI BANK 411             14   14067067100700641135RAJHI HAMZA                   00000000000000001000000VIR20251223PGH  FILIALES                      2025122300000000010                                      
110104   202512230001217880000000000000011131900000004001007404700411649ATTIJARI BANK 411             07   07016007810558352528ARIDHI LATIFA                 00000000000000001000000VIR20251223PGH  FILIALES                      2025122300000000010                                      
110104   202512230001217880000000000000004000000000004001007404700411649ATTIJARI BANK 411             07   07016007810582292128EZZIDINI KHALED               00000000000000001000000VIR20251223PGH  FILIALES                      2025122300000000010                                      
110104   202512230001217880000000000000009250000000004001007404700411649ATTIJARI BANK 411             14   14008008100709748250OUHIBI SAMEH                  00000000000000001000000VIR20251223PGH  FILIALES                      2025122300000000010                                      
110104   202512230001217880000000000000006250000000004001007404700411649ATTIJARI BANK 411             07   07016007810581731953CHALLAKH MOHAMED              00000000000000001000000VIR20251223PGH  FILIALES                      2025122300000000010                                      
110104   202512230001217880000000000000008417700000004001007404700411649ATTIJARI BANK 411             08   08019011022001723056MOHAMED BEN MLOUKA            00000000000000001001000VIR20251223PGH  FILIALES                      2025122300000000010                                      
110104   202512230001217880000000000000141800000000004001007404700411649ATTIJARI BANK 411             20   20032322220051647331RAJHI RAOUF                   00000000000000001001000VIR20251223PGH  FILIALES                      2025122300000000010                                      
110104   202512230001217880000000000000004000000000004001007404700411649ATTIJARI BANK 411             07   07077013510552050124AYMEN ARBOUJ                  00000000000000001001000VIR20251223PGH  FILIALES                      2025122300000000010                                      
110104   202512230001217880000000000000049200000000004001007404700411649ATTIJARI BANK 411             17   17001000000089830627BEN SOUFIENE                  00000000000000001001000VIR20251223PGH  FILIALES                      2025122300000000010                                      
110104   202512230001217880000000000000001200000000004001007404700411649ATTIJARI BANK 411             08   08047020022002526737KOUKI HABIB                   00000000000000001001000VIR20251223PGH  FILIALES                      2025122300000000010                                      
110104   202512230001217880000000000000002700000000004001007404700411649ATTIJARI BANK 411             17   17206000000178121860MAROUENI MOETAZ               00000000000000001001000VIR20251223PGH  FILIALES                      2025122300000000010                                      
110104   202512230001217880000000000000003000000000004001007404700411649ATTIJARI BANK 411             07   07018008610554386262TOUNEKTI ANIS                 00000000000000001001000VIR20251223PGH  FILIALES                      2025122300000000010                                      
110104   202512230001217880000000000000004000000000004001007404700411649ATTIJARI BANK 411             14   14207207100714066409OUESLATI MAJED                00000000000000001001000VIR20251223PGH  FILIALES                      2025122300000000010                                      
110104   202512230001217880000000000000005765000000004001007404700411649ATTIJARI BANK 411             17   17606000000210085633REBII ABDSATAR                00000000000000001001000VIR20251223PGH  FILIALES                      2025122300000000010                                      
110104   202512230001217880000000000000006000000000004001007404700411649ATTIJARI BANK 411             20   20024242220001496968BOUKHATMI HAFEDH              00000000000000001001000VIR20251223PGH  FILIALES                      2025122300000000010                                      
110104   202512230001217880000000000000008897800000004001007404700411649ATTIJARI BANK 411             25   25044000000121815088KOBTANE ANIS                  00000000000000001002000VIR20251223PGH  FILIALES                      2025122300000000010                                      