V1  200030322100597580292026031000000000000000028149202603100001   0000005   788TND000000000001191310                                                                                                                                           
V2  2000303221005975802905000000001556336231BADREDDINE FARES              000000000000000281492026031000010000001000MARE ALB SIEGE RETRAITES 2026721227 du 09032026 OV GM n 28149                                       000000000000083836      
V2  2000303221005975802914061061100700329850Rhouma Ahmed                  000000000000000281492026031000010000002000MARE ALB SIEGE RETRAITES 2026721227 du 09032026 OV GM n 28149                                       000000000000323950      
V2  2000303221005975802917001000000361892056OM HENI                       000000000000000281492026031000010000003000MARE ALB SIEGE RETRAITES 2026721227 du 09032026 OV GM n 28149                                       000000000000110976      
V2  2000303221005975802905000000001507917711Samia MANAA                   000000000000000281492026031000010000004000MARE ALB SIEGE RETRAITES 2026721227 du 09032026 OV GM n 28149                                       000000000000559077      
V2  2000303221005975802914008008100701865254ADEL NOUIRA                   000000000000000281492026031000010000005000MARE ALB SIEGE RETRAITES 2026721227 du 09032026 OV GM n 28149                                       000000000000113471